:020000040000FA
:0600000051EF14F01200A4
:020006001200E6
:060008008DEF05F012006F
:02000E001200DE
:02001000FEFFF1
:0600180085EF06F0120066
:02001E000200DE
:100020000729000000010000DD00000010000000B2
:08003000E701000002000000DE
:080038001CEC09F020EC09F0BA
:1000400002E6B6EC08F009E2FCEC08F0EE6AED6AB4
:10005000DF2A010EF3E3DB2AF1D7020EE15C02E2B4
:10006000E16AE552C9EF07F01CEC09F020EC09F059
:1000700002E6B6EC08F00BE205EC08F080EC08F0C4
:10008000EE6AED6ADF2A010EF1E3DB2AEFD7020EFA
:10009000E15C02E2E16AE552C9EF07F01CEC09F00D
:1000A00020EC09F002E6B6EC08F013E2FCEC08F0F4
:1000B000EECF14F0EFCF15F005EC08F080EC08F06F
:1000C00014C0EEFF15C0EDFFDF2A010EE9E3DB2AC5
:1000D000E7D7020EE15C02E2E16AE552C9EF07F000
:1000E000ABDF81BE04D0010E0101386F396B84B6DD
:1000F00004D0010E01013A6F3B6B80B004D0010EB9
:1001000001013C6F3D6B80B204D0010E01013E6FD6
:100110003F6B80B404D0010E0101406F416B80B68B
:1001200004D0010E0101426F436B80B804D0010E70
:100130000101446F456B80BA04D0010E0101466F86
:10014000476B84B004D0010E0101486F496B84B243
:1001500004D0010E01014A6F4B6B120053EC08F002
:10016000BFDF01014E6B4F6B040EDB6A050EDB6ACD
:1001700077EC08F004E60B0E145C000E155825E22F
:10018000BAEC07F0010E141806E1155004E1010164
:100190004E2B000E4F23C5EC08F0D8EC08F0010EF2
:1001A000EE180DE1ED500BE1020EDB2A030E01E328
:1001B000DB2A66EC08F0156E14C0DEFFDD6E040E5F
:1001C000DB2A050ED5E3DB2AD3D70DEC08F007C0F8
:1001D00078F108C079F109C07AF10AC07BF14EC10B
:1001E000F3FF4FC1F4FF060EE15C02E2E16AE55263
:1001F000C9EF07F053EC08F0040EDB6A050EDB6A6A
:1002000077EC08F004E60B0E145C000E155830E293
:10021000BAEC07F0C5EC08F0D890E936EA3680EC85
:1002200008F0EECF1AF0EFCF1BF029EC09F0D890D0
:10023000E936EA3680EC08F0EE501A5C186EEE50A3
:100240001B58196E1850141802E1195015180AE0BD
:10025000020EDB2A030E01E3DB2A66EC08F014C071
:10026000DEFFDD6E040EDB2A050ECAE3DB2AC8D7EB
:100270000DEC08F007C074F108C075F109C076F103
:100280000AC077F127EC08F078C107F079C108F0CF
:100290007AC109F07BC10AF030EC11F0010A02E1E9
:1002A000010E01D0020EF36EF46A060EE15C02E26A
:1002B000E16AE552C9EF07F057EC08F001E1095097
:1002C0000FE0085001E1095008E0010E08180AE1AA
:1002D000095008E18384839605D08394838602D0F5
:1002E00083848384E0EF08F057EC08F001E10950C3
:1002F0000EE0085001E1095007E0010E081809E17D
:10030000095007E1839204D08382839002D08382D4
:100310008380E0EF08F081BE02D0010E23D084B6C6
:1003200002D0020E1FD080B002D0030E1BD080B2CC
:1003300002D0040E17D080B402D0050E13D080B6C0
:1003400002D0060E0FD080B802D0070E0BD080BAB4
:1003500002D0080E07D084B002D0090E03D084B2B8
:1003600003D00A0EF36E01D0F36AF46A120084B26D
:1003700002D00A0E23D084B002D0090E1FD080BA5A
:1003800002D0080E1BD080B802D0070E17D080B65E
:1003900002D0060E13D080B402D0050E0FD080B26A
:1003A00002D0040E0BD080B002D0030E07D084B66A
:1003B00002D0020E03D081BE03D0010EF36E01D035
:1003C000F36AF46A120080B402D0050E23D080B222
:1003D00002D0040E1FD080B002D0030E1BD084B612
:1003E00002D0020E17D081BE02D0010E13D080B60B
:1003F00002D0060E0FD080B802D0070E0BD080BA04
:1004000002D0080E07D084B002D0090E03D084B207
:1004100003D00A0EF36E01D0F36AF46A120080B6BC
:1004200002D0060E23D080B802D0070E1FD080BAAB
:1004300002D0080E1BD084B002D0090E17D084B2AF
:1004400002D00A0E13D080B402D0050E0FD080B2B5
:1004500002D0040E0BD080B002D0030E07D084B6B9
:1004600002D0020E03D081BE03D0010EF36E01D084
:10047000F36AF46A120098EC07F018C108F019C189
:1004800009F0A5EC07F01AC1E8FFF6EC07F01BC174
:10049000E8FF76EC07F002E2E16AE552C9EF07F007
:1004A00098EC07F00CC108F00DC109F0A5EC07F0BD
:1004B0000EC1E8FFF6EC07F00FC1E8FF76EC07F09D
:1004C00002E2E16AE552C9EF07F098EC07F012C1C9
:1004D00008F013C109F0A5EC07F014C1E8FFF6EC31
:1004E00007F015C1E8FF76EC07F002E2E16AE55299
:1004F000C9EF07F098EC07F006C108F007C109F052
:10050000A5EC07F008C1E8FFF6EC07F009C1E8FF29
:1005100076EC07F002E2E16AE552C9EF07F0D3ECAE
:1005200008F00101342B000E3523CCEC08F03551D6
:100530001518E8AE02D0153404D01450345D1550AF
:10054000355906E2FD0E34C1DBFFFE0E35C1DBFF7F
:1005500030EC08F035511518E8AE02D0153404D04F
:100560001450345D1550355906E2FB0E34C1DBFFE3
:10057000FC0E35C1DBFF353507E23451FF08000EB4
:10058000355502E23469356B010E801905E1815160
:1005900003E1BB6ABE6A72D08FEC08F015E272EC20
:1005A00008F012E28FEC08F009E21450FF08000E88
:1005B000155404E2FD0EDB68FE0EDB6A010E9BECB7
:1005C00008F0FD0EDB501FD0CCEC08F0D8801550A1
:1005D00004E7010E145CFF0E155807E2010EF36EDE
:1005E000FD0EF3CFDBFFFE0EDB68000E9BEC08F088
:1005F00008680968FD0EDBCF0DF0FE0EDBCF0EF0B4
:10060000D4EC10F00650BB6E30EC08F0153416E256
:1006100072EC08F013E230EC08F0153409E21450E3
:10062000FF08000E155404E2FB0EDB68FC0EDB6ACB
:10063000010EA2EC08F0FB0EDB501FD030EC08F0EE
:10064000D880155004E7010E145CFF0E155807E220
:10065000010EF36EFB0EF3CFDBFFFC0EDB68000E2A
:10066000A2EC08F008680968FB0EDBCF0DF0FC0E69
:10067000DBCF0EF0D4EC10F00650BE6EE0EF08F0C9
:100680006F84EC0ED36EC00E9B6E806A816A826AA4
:100690000F0EC16E6D966F869268870E936E310E47
:1006A000946E700E956E96681200F294F28A9E9087
:1006B0009D90F092F098A192A082F290F296F28C26
:1006C000F28ED08EF28CF28EF184A2929F90120064
:1006D000070ECA6EBD9ABD98BD86BD84BD92BD9001
:1006E000BA9ABA98BA86BA84BA92BA90F90ECB6E10
:1006F0001200B192B18AB1881200D59AD596D58CE4
:10070000D590D582D584F284F29AD76AB10ED66E8E
:100710001200A9EF08F0A9EF08F0F294D76A140EBE
:10072000D66ED58E1200CD94CD8CCD96CD92CD883F
:10073000CD8ACD8E120097EC08F00101010E26192A
:1007400003E1275101E18A8C020E261903E12751AA
:1007500001E18A8A030E261903E1275101E18A8803
:10076000040E261903E1275101E18A8612000101D6
:100770002651271114E1DCEC07F0550E0A6F0B6BC4
:10078000150E0C6F0D6BC80E24EC09F02D0E106FBA
:10079000116B150E126F136BC80EFFEC07F0010EF4
:1007A000261913E1275111E1DCEC07F05A0E0A6F0C
:1007B0000B6B170E92EC08F0390E106F116B1B0EBD
:1007C000126F136BD20EFFEC07F0020E26191EE11A
:1007D00027511CE1DCEC07F00A6F0B6B180E92EC52
:1007E00008F03F0E106F116B180E126F136BD20EC4
:1007F000146F156B500E166F176B110E186F196B67
:10080000AA0E1A6F1B6B190EEEEC08F0030E2619D8
:1008100005E1275103E1D0DB820EBDDB040E261972
:1008200004E1275102E1C8DBB6DB8A888A8A8A8C18
:100830008A86FA0EBBEC08F097EC08F09BEF03F009
:1008400084A41CD082B811D00101262B000E2723CE
:10085000050E261904E1275102E1266B276B6BDF99
:1008600082A8FED7320EBBEC08F082BAE9D782AA82
:10087000FED7320EBBEC08F07ADFE2D7F28A120024
:10088000D3EC08F0A69EA69CA684FD0EDB50A96EB4
:10089000FC0EDB50A86E550EA76EAA0EA76EA682A0
:1008A000A1A8FED7A198A694E0EF08F0D3EC08F039
:1008B000FD0EDB50A96EA69EA680A850E0EF08F0C2
:1008C00070EC00F0B886E20EE66E040EE66E3C0EAA
:1008D000E66EAFEC12F0E552E552E5524EC1E6FF8E
:1008E0004FC1E6FF4CC1E6FF4DC1E6FF4AC1E6FF3E
:1008F0004BC1E6FF48C1E6FF49C1E6FF46C1E6FF3E
:1009000047C1E6FF44C1E6FF45C1E6FF42C1E6FF3D
:1009100043C1E6FF40C1E6FF41C1E6FF3EC1E6FF3D
:100920003FC1E6FF3CC1E6FF3DC1E6FF3AC1E6FF3D
:100930003BC1E6FF38C1E6FF39C1E6FF36C1E6FF3D
:1009400037C1E6FFDA0E146E280E156E166A14C053
:10095000E6FFE66E16C0E6FF63EC12F0176E1D0EA2
:10096000E15E1750DA0EE66E010EE66EA1EC13F0B2
:10097000E552E5524F0EAB16AC9ACF0E9D16120003
:1009800025DB360EDE6EDD6A8A9C8A9A8A9899DBB0
:10099000153420E2A7DB1EE28A8CD9CFE9FFDACF3B
:1009A000EAFF120EEE1803E1ED5001E18A8AD9CF79
:1009B000E9FFDACFEAFF240EEE1803E1ED5001E182
:1009C0008A8855DB9EA0FED7DF06010E01E2DB061A
:1009D000CD90DDD7020EE15C02E2E16AE552D9D2A8
:1009E000F5DA0A0EDE6EDD6A6CDB15340BE27ADBBB
:1009F00009E23DDB9EA0FED7DF06010E01E2DB0629
:100A0000CD90F2D7020EE15C02E2E16AE552C1D27A
:100A1000DDDA050EDE6EDD6A54DB15340BE262DBD7
:100A200009E225DB9EA0FED7DF06010E01E2DB0610
:100A3000CD90F2D7020EE15C02E2E16AE552A9D262
:100A400016DB9EA0FED7CD90120088C120F189C18F
:100A500021F101010B0E205F000E215B800E21159C
:100A600005E0206D211F000E212302D021C121F1BC
:100A70000AC108F00BC109F044EC0FF007C014F0F4
:100A800008C015F009C016F00AC017F020C108F020
:100A900021C109F044EC0FF007C020F008C021F09C
:100AA00009C022F00AC023F0D2DA22C107F023C124
:100AB00008F024C109F025C10AF041EC10F007C08C
:100AC0001CF008C01DF009C01EF00AC01FF00C6A1F
:100AD0000D6A800E0E6E3F0E0F6E58EC0FF007C0C1
:100AE00018F008C019F009C01AF00AC01BF0AFDAFC
:100AF00014C007F015C008F016C009F017C00AF0BE
:100B0000EEEC0FF001EC11F008C000F109C001F1AA
:100B100008C0F3FF09C0F4FF1200DACFE4FFE2CF10
:100B2000DAFFE9CFE4FFEACFE4FFF6CFE4FFF7CF47
:100B3000E4FFF5CFE4FFF3CFE4FFF4CFE4FFFACF17
:100B4000E4FF00EE00F0140EE80403E3EECFE4FF50
:100B5000FBD700EE14F0100EE80403E3EECFE4FF41
:100B6000FBD7E652F2A4ADD0D8DD060E0101021982
:100B700001E1035172E0010E021901E1035141E06C
:100B8000040E021901E1035128E0030E021901E1EC
:100B900003511EE0020E021901E1035101E191D05F
:100BA000025101E08ED0035101E08BD04EDF2ADBF1
:100BB00001010051F324846F0151F420856FF3503B
:100BC000005D866FF450015938DAB1DA8A8C79D039
:100BD000AEDA8A8A1CDB59DA04D020DB56DAA7DACF
:100BE0008A8893DA72DC4ADA01011051F324846FA7
:100BF0001151F420856FF350105D866FF450115938
:100C00005FD095DA8A8A8A880FEC02F0F3CF8EF1F2
:100C1000F4CF8FF1E3EC01F0F3CF8CF1F4CF8DF151
:100C20000101F3508E25886FF4508F21896F885110
:100C3000891102E1A5DA01D06DDA67DA1CDC1EDA6F
:100C400001011651F324846F1751F420856FF3507E
:100C5000165D866FF450175933D01C6B1D6B1D51F8
:100C60001F19E8AE02D01F3504D01E511C5D1F5164
:100C70001D5919E2020E8A1901E18B5105E0120E8D
:100C80008A1911E18B510FE1380EE66EE668E66EC7
:100C9000E668CBDA01011C2B000E1D238A888A86A8
:100CA0008A8A8A8C01D0AEDA010100519025846FC6
:100CB00001519121856F9051005D866F91510159CD
:100CC000BCD9E55200EE23F0100EE80403E3E5CFB3
:100CD000EDFFFBD700EE13F0140EE80403E3E5CFBD
:100CE000EDFFFBD7E5CFFAFFE5CFF4FFE5CFF3FF4C
:100CF000E5CFF5FFE5CFF7FFE5CFF6FFE5CFEAFF5C
:100D0000E5CFE9FFE5CFDAFF1100DACFE4FFE652E5
:100D10009EB09E90E552E5CFDAFF1100B1DCC5DC54
:100D2000D7DCEBDC00DDE5DC8A8AFED7F29AAEEC9C
:100D300000F0F3CF4EF1F4CF4FF1F28A0101685188
:100D4000691174E14E514F110AE144D902E118DAF8
:100D500001D0E0D9060E026F036B686B696B010E60
:100D60004E190EE14F510CE135D902E109DA01D0FB
:100D7000D1D94EEC00F00101026B036B686B696B1B
:100D8000020E4E193FE14F513DE16A6B6B6BE7D9A3
:100D9000020EF31837E1155035E101016A516B116C
:100DA0001BE17C6B7D6BFAEC00F0F3CF7CF1F4CFB0
:100DB0007DF1010E01016A6F6B6BF31806E17D5145
:100DC00004E1010E686F696B07D0020E7C1904E123
:100DD0007D5102E168696969010E6A19D8E16B51B8
:100DE000D6E198D9681D05E1691D03E1030E026F84
:100DF000036B010E6819CBE16951C9E1040E026F62
:100E0000036BC5D70101030E4E1990E14F518EE1DE
:100E1000A6D9010EF31801E1155088E0020E010178
:100E2000686F696B010E026F036BF2D7685169112D
:100E300001E17CD76C6B6D6B706B716B6E6B6F6B64
:100E40006C516D1150E170EC00F084B204D0010ED1
:100E50000101706F716B81BE04D0010E01016E6FD4
:100E60006F6B0101010E681910E169510EE1030E6B
:100E7000026F036B8450020B08E0010E701905E14C
:100E8000715103E1010E6C6F6D6B681D10E1691DFE
:100E90000EE1040E026F036B8150800B08E0010E1F
:100EA0006E1905E16F5103E1010E6C6F6D6B020E5F
:100EB0006819C6E16951C4E1010E026F036B8450E9
:100EC000020BBEE08150800BBBE0010E7019B8E14F
:100ED0007151B6E1010E6E19B3E16F51B1E1010E2E
:100EE0006C6F6D6BADD7686B696B20D71802F350D0
:100EF0001726020EDB501624146E030EDB5017204B
:100F0000156E020E14C0DBFF030E15C0DBFFDECF33
:100F100064F0DDCF65F0020EDBCF14F0030EDBCF03
:100F200015F014C0F3FF15C0F4FF040EE15C1200CD
:100F30003AD9040E59D930D90B0E145E000E155A49
:100F400014C0DEFF15C0DDFF1200DECF0DF0DDCFD7
:100F50000EF0D4EC10F0020E06C0DBFF030E07C04B
:100F6000DBFF00016451DE5C186E6551DD58196EBF
:100F7000000112000AD91CD9EECF16F0EFCF17F0FE
:100F800068D916D9EE50165C146EEE501758156ECF
:100F90001200E16E15D10A6F0B6B170E0C6F0D6B03
:100FA000E60E52D93C0E176B130E196BE60E1B6B37
:100FB0000BD9140EEEEF08F0230E046F056B040E30
:100FC000066F076B780E086F096B1200ECD8020EE3
:100FD000E12612001CD922D901018C51F324886F1B
:100FE0008D51F420896F8851891112001802F3CFB6
:100FF00016F0F4CF17F01902F35017261200146FF1
:10100000156BE2D8190EEEEF08F0DECFE9FFDDCF69
:10101000EAFFD890E936EA361200000EDFCF08F07A
:10102000010EDBCF09F0020EDBCF0DF0030EDBCF9C
:101030000EF0AEEC10F044EF0FF0876F84C1E6FFC6
:1010400085C1E6FF86C1E6FFE66E15EF09F007C031
:101050000CF008C00DF009C00EF00AC00FF012002D
:10106000FB0EDBCF14F0FC0EDBCF15F01200850E6B
:10107000CF6EEE0ECE6E9E90CD801200E552E55200
:10108000F3CF90F1F4CF91F11200020E086E096ACD
:10109000F3CF0DF0F4CF0EF0D4EC10F006C088F1D1
:1010A00007C089F112007FD8060EF4EF08F07BD854
:1010B000FD0EDBCF08F0FE0EDBCF09F0020E0818A4
:1010C0001200DECF14F0DDCF15F01200040EDBCFDE
:1010D00016F0050EDBCF17F0DE501624146EDD502F
:1010E0001720120014500008000E15541200040EB0
:1010F000DBCF14F0050EDBCF15F0D89015501200A1
:10110000500EE926010EEA22120088C1E6FF89C1CD
:10111000E6FF120088C18AF189C18BF112003CD828
:10112000153412000C6F0D6BD20E24EF09F08A9C5F
:101130008A9A8A981200E66EE66A74EC01F0E5522B
:10114000E5521200E66EE66A5CEC01F0E552E5520B
:101150001200F294D76AD90ED66ED58E1200AEEC7C
:1011600000F0F3CF14F0F4CF15F012000C0E145C65
:10117000000E15581200E66EEBEC13F0E55212006B
:101180008AC188F18BC189F11200040EDBCFE9FF1F
:10119000050EDBCFEAFF1200FD0EDBCF14F0FE0ED2
:1011A000DBCF15F01200D9CFE6FFE1CFD9FF120057
:1011B000D890E936EA36360EE926010EEA22120008
:1011C000E552E7CFD9FF1200460E166F176B090ED6
:1011D000186F196B640E1A6F1B6B12001E6F1F6B5A
:1011E000020E326F336B1200E126DE6ADD6A020EF8
:1011F000DB6A030EDB6A120008DF360EE926010EF9
:10120000EA22120082DF50EC02F03EEF08F08BEC95
:1012100001F0F3CF8CF1F4CF8DF11200B7EC01F0B7
:10122000F3CF8EF1F4CF8FF112008FEC02F0E55284
:10123000E552E552E5521200C9DEDE6ADD6A1200AF
:1012400040DFD890155012000E6F0F6B006B016BD2
:101250001200010EE76E99DFE750E926000EEA2240
:0212600012007A
:0E1262006DEC0EF0FB0EDBCFF3FFDB06F3505E
:1012700000090AE0BBEC0EF0FA0E26EC0FF0F3E1E9
:10128000151CF1E1010E01D0000E9CEF0EF06DEC8B
:101290000EF03B0EE12402E3E168E652E16E010E3E
:1012A000DB6A020EDB6AF90EDBCFF6FFFA0EDBCF4C
:1012B000F7FFFB0EDBCFF8FF0800F550DF6EDF50C5
:1012C00002E1C0EF0DF0250EDF5C02E0B3EF0DF0A0
:1012D000030EDB6A040EDB6A050EDB6A060EDB6AB0
:1012E000070EDB6AD5EC0DF02D0EDF5C0CE02B0E4B
:1012F000DF5C09E0200EDF5C06E0230EDF5C03E02C
:10130000300EDF5C1AE1DF50300A14E0130A0FE000
:10131000030A0AE00B0A05E0060AE4E1030EDB809B
:10132000E1D7030EDB82DED7030EDB84DBD7030EAF
:10133000DB86D8D7030EDB88D5D72A0EDF5C1BE10E
:10134000D1EC0DF01FEC0EF010E0030EDB8008680E
:101350000968130EDBCF0DF0140EDBCF0EF0D4ECCA
:1013600010F0040E06C0DBFF03D0130E08EC0EF0E5
:10137000D5EC0DF00BD0090EDB6A76EC0EF003E035
:10138000EAEC0EF0FAD7090E08EC0EF0030EDBB013
:10139000DB982E0EDF5C1BE1D5EC0DF02A0EDF5C36
:1013A0000BE1D1EC0DF01FEC0EF003E1130E5AEC43
:1013B0000EF0D5EC0DF00BD0090EDB6A76EC0EF0DA
:1013C00003E0EAEC0EF0FAD7090E5AEC0EF0680EC4
:1013D000DF5C07E1D5EC0DF0680EDF5C1DE1030E6C
:1013E00018D0740EDF5C17E07A0EDF5C14E0480E54
:1013F000DF5C06E0540EDF5C03E05A0EDF5C02E1C6
:10140000020E07D06C0EDF5C03E06A0EDF5C04E1C5
:10141000010EADEC0EF0C9DBDF506E0A01E17FD3A7
:101420001E0A01E192D1200A01E18FD13F0A01E1B8
:1014300049D11A0A01E146D10D0A01E143D1200A3E
:1014400001E140D13A0A01E13DD1200A01E13AD15E
:10145000260A01E135D10D0A01E132D11A0A01E172
:10146000D9D0200A4AE0300A1FE0460A0EE0250AD9
:1014700001E083D3D950F90FE96EFF0EDA20EA6E4E
:10148000010EEE5E000EEE5AEE5ABBEC0EF0250E8B
:10149000E66E95DB03E1151C01E169D3B7EC0EF0B4
:1014A00001E26BD3DB2A69D3080EDB6A040EDB5042
:1014B000010806E2040EDB047FEC0EF0DB508BDB50
:1014C000080EDB5009E0030EDB50010B05E172DB77
:1014D00001E04DD3080EDB6A64DBEFCFDFFF2FECBA
:1014E0000FF003E1151C01E142D3B7EC0EF001E36C
:1014F000DB2A60DB01E141D33AD3070EDB5002085F
:101500000FE1FBEC0EF0030EC2EC0EF00E0EEECF70
:10151000DBFF0F0EEECFDBFF100EEECFDBFF20D098
:10152000F70EDBCF17F0F80EDBCF18F0020E175EC8
:10153000000E185AF70E17C0DBFFF80E18C0DBFFBD
:1015400017C0E9FF18C0EAFFB2EC0EF0166A0E0EE3
:1015500014C0DBFF0F0E15C0DBFF100E16C0DBFF43
:101560000E0EDBCFE6FF0F0EDBCFE6FF100EDBCF5C
:10157000E6FF7CEC13F0E552E552E552130E07C08E
:10158000DBFF140E08C0DBFF060EDB5005E0130E78
:10159000F6EC0EF001E26ADB1AEC0FF002E2130E39
:1015A00037DBDDEC0EF006E0040EF6EC0EF002E2A6
:1015B000050E2EDB030EDBB005D0FCDA01E0D7D23E
:1015C000080EDB6A090EDB6A0E0EDBCFF6FF0F0E8C
:1015D000DBCFF7FF100EDBCFF8FF0800F550DF6E12
:1015E000DF5014E020EC0FF011E22FEC0FF003E1DC
:1015F000151C01E1BCD2BBDB01E3DB2A090EDB2AAF
:10160000D9500E0FE96E000ECBDBE7D7D3DA01E13C
:10161000B4D2ADD2C6DA110EEECFDBFF120EEDCF93
:10162000DBFF110EDBCFE6FF120EDBCFE6FF6EEC29
:1016300013F0E552E552130EF3CFDBFF140EF4CF97
:10164000DBFF060EDB5004E0130ED0DB01E20EDB05
:101650001AEC0FF002E2130EDBDAAFDB05E0040E4A
:10166000C5DB02E2050ED4DA030EDBB005D0A2DA48
:1016700001E07DD2080EDB6A090EDB6A110EDBCFBA
:10168000E9FF120EDBCFEAFFEFCFDFFFDF5014E000
:10169000D7DB12E2E4DB03E1151C01E168D267DB72
:1016A00001E3DB2A090EDB2A110EDB2ADBCFE9FF7F
:1016B000120EE8E3DB2AE6D77DDA01E15ED257D2EB
:1016C000030EDB8E070EDB0410E195DB040E5ADB04
:1016D0000A0EEECFDBFF0B0EEECFDBFF0C0EEECFD4
:1016E000DBFF0D0EEECFDBFF6CD0070EDB500308E7
:1016F0002CE1030EDBAE0DD0B2DA020E76DAEFCFBC
:1017000014F0156A166A176A14AE39D0156816688F
:1017100035D0F70EDBCF15F0F80EDBCF16F0020E4A
:10172000155E000E165AF70E15C0DBFFF80E16C038
:10173000DBFF15C0E9FF16C0EAFFEFCF14F00A0E79
:1017400014C0DBFF0B0EDB6A38D0070EDB5002083B
:1017500009E1030EDBAE04D059DB16AE10D00ED07B
:1017600055DB0DD0030EDBAE12D079DA020E3DDA76
:10177000F9DA166A176A15AE02D016681768E2DA47
:101780000C0E16C0DBFF0D0E17C0DBFF1AD0F70ED4
:10179000DBCF16F0F80EDBCF17F0020E165E000E50
:1017A000175AF70E16C0DBFFF80E17C0DBFF16C086
:1017B000E9FF17C0EAFFD6DAC5DA0C0EDB6A0D0EB8
:1017C000DB6A060EDB5005E1010EF36E050EF3CF6A
:1017D000DBFF150EDB6A160EDB6AD950370F146E6D
:1017E000000EDA20156E390E14C0DBFF3A0E15C05C
:1017F000DBFF380EDB6A080EDB6A0A0EAEDADF505A
:10180000780A12E0200A10E0280A0CE0200A0AE018
:101810003F0A06E00D0A02E0200A08E1020E05D0A8
:10182000080E03D0080EDF26100E97DA030EDBBE7B
:1018300002D0DB92DB94DB50800B24E08ADAD89074
:10184000030EEB50000A08E6000EEE5C000EEE58A8
:10185000000EEE58000EEE5815E213DA0B680C6815
:101860000D680E6836EC13F00A0E02C0DBFF0B0E9B
:1018700003C0DBFF0C0E04C0DBFF0D0E05C0DBFF59
:101880002D0E08D0030EDBA202D02B0E03D0DBA45A
:1018900008D0200EF36E170EF3CFDBFF150EDB2AF8
:1018A00002D0170EDB6A050EDB5003E1B7D901E168
:1018B00089D0F60E146E280E156E000E166E070EE9
:1018C000DBCF17F0186A196A1A6A17C00BF018C034
:1018D0000CF019C00DF01AC00EF0D3D9C7EC13F0FC
:1018E00014500224F36E15500320F46E1650042099
:1018F000F86EF4CFF7FFF3CFF6FF0800090EF5CF2F
:10190000DBFF580EDF5C0FE1610EF36E090E7BD931
:101910000AE3200E146E090EDBCFE7FF1450E75EDA
:10192000090EE7CFDBFF070EDBCF14F0156A166A4E
:10193000176A0FDA14C00BF015C00CF016C00DF0CA
:1019400017C00EF0EECF06F0EECF07F0EECF08F0A6
:10195000EFCF09F0C7EC13F009C0EDFF08C0EDFFB1
:1019600007C0EDFF06C0EFFF390EDBCFE9FFDB0656
:101970003A0EDBCFEAFF01E2DB06090EDBCFEFFF19
:10198000150EDB2A4BD995E1030EDBA61DD06F0E99
:10199000DF5C06E1C1D918E3150EDB285BDA14D051
:1019A000780EDF5C09E0580EDF5C06E0620EDF5C5B
:1019B00003E0420EDF5C08E1020EF36E160EF3CF79
:1019C000DBFF02D0150EDB6A030EDB50100B0EE0BE
:1019D000040EDBCF14F0050EDB50D880145406E261
:1019E000060EDB5003E1040EDB5034DA95D90AE22F
:1019F000050EDBCFE7FF150EDB50E75E050EE7CFE8
:101A0000DBFF02D0050EDB6A040EDBCF14F0160EEE
:101A100045D9D880145414E2160EDBCFE6FF150E1C
:101A2000DBCFE6FF040EDBCFE6FF050EDB50E55211
:101A3000E75CE552D880E754E552D880E7545FD997
:101A4000030EDB50010B0BE1080EDB5008E0B2D8AF
:101A500001E08DD0080EDB50BED8080EDB6A170EF1
:101A6000DB5007E088D9170EF1D903E1151C01E11D
:101A70007ED0160EDB5016E07ED9300EE66E9FD873
:101A800002E1151C74E077D9DFCFE6FFF4EC12F029
:101A9000E552E552E552F4CF15F00001F31C02E1E6
:101AA000151C65E0050EDBCF14F0160EDB50D88058
:101AB000145409E2050EDBCFE7FF160EDB50E75E9C
:101AC000050EE7CFDBFF300EE66E050ECBD94FE1FA
:101AD000390EDB2ADBCFE9FF3A0E01E3DB2ADBCF4D
:101AE000EAFF090EEFCFDBFFDB500EE044D9090E11
:101AF000ADD902E1151C3BE0390EDB2ADBCFE9FF53
:101B00003A0EEDE3DB2AEBD755D831E1160EDBCFE9
:101B1000E6FF080EC3D8E552E7245DD82ED0070EA5
:101B2000DB50030A1CE0010A14E0030A07E07BD93A
:101B3000DBCFEEFF020EDBCFEDFF1FD0F5D8196A29
:101B400017AE02D0186819682CD8BCD819C0EEFF9F
:101B500014D0EAD817BE186824D8B4D80ED063D9E8
:101B6000DBCFEFFF0AD07BD905E1151C03E1F36859
:101B7000F46810D0FCD801E3DB2A79D95CEF09F0D6
:101B8000010EDBCF14F0020EDBCF15F014C0F3FF13
:101B900015C0F4FF3B0EE15C02E2E16AE552E16E42
:101BA000CBD029D9020EC2EF0EF061D90800F55052
:101BB000DF6E1200200EE66E080E32EF0FF0F4EC2E
:101BC00012F0E552E552E552F3CF14F0F4CF15F0E0
:101BD0000001F31C1200146E156AD950010F4DD983
:101BE0001450EE261550ED221200185E000E195A00
:101BF000F70E18C0DBFFF80E19C0DBFF18C0E9FFB5
:101C000019C0EAFF1200DBCFF4FFF350F45C1200BE
:101C1000DB50E76E040EE7CFDBFF12000A0EDBCFCE
:101C200014F00B0EDBCF15F00C0EDBCF16F00D0E03
:101C3000DBCF17F014501510161017101200130EEA
:101C4000EECFDBFF140EEDCFDBFF130EDBCF14F076
:101C5000140EDBCF15F00001800E15141200F70EE4
:101C6000DBCF18F0F80EDBCF19F01200050EDB50B9
:101C7000E66ED950130F01D9E552E750EE6EED6ACA
:101C800012000A0EDBCF06F00B0EDBCF07F00C0EB6
:101C9000DBCF08F00D0EDBCF09F01200DBCFE6FF43
:101CA000150EDBCFE6FF050EDB50E552E724E552CB
:101CB000E7241200DB50CED8010EF36E060EF3CFF0
:101CC000DBFF1200EE50EFCFEAFFE96E16C0EEFF29
:101CD00017C0EEFF18C0EEFF1200D9CFE6FFDACF33
:101CE000E6FFE1CFD9FFE2CFDAFF1200DFCFE6FF58
:101CF000E66A2FEC14F0E552E552F3501200E76E5D
:101D0000080EE7CFDBFF1200EECF14F0EECF15F098
:101D1000EFCF16F0176A1200050EDBCF14F0150E88
:101D2000DB50D88014541200010EDBCF16F0020EE7
:101D3000DBCF17F0186A1200E552E5CFDAFFE7CFE4
:101D4000D9FF12000A0E14C0DBFF0B0E15C0DBFF1B
:101D50001200D9500A0F3DEF0FF0F36E070EF3CFCC
:101D6000DBFF1200EECF14F0EFCF15F01200010EE2
:101D7000DB2A020E1200FC0EDBCFE6FFFD0EDBCFEE
:101D8000E6FF1200145E000E155AF70E14C0DBFFBA
:101D9000F80E15C0DBFF14C0E9FF15C0EAFF120002
:101DA000DA20EA6EEF2AEECFF6FF000EEF22EECF3A
:101DB000F7FFEF22EECFF8FF1200040EDBCFE6FFB5
:101DC000130EDB50E552E75C9ADFDB5004DF060EB2
:101DD000DB501200090EDB500A0DF350DF24D00F48
:101DE000E76E090EE7CFDBFFD5EF0DF0DB50F36EAA
:101DF000050E03EF0EF0F70EDBCF14F0F80EDBCF7D
:101E000015F01200DFCFE6FFDFEF0DF028DF030E45
:101E1000ECDE84EF0EF031EC09F0E552E552E552CC
:101E2000E55200091200BDDEEE50EFCFEAFFE96E89
:101E3000010E1200130EDB50F36E040E03EF0EF0D2
:101E4000040EDB50F36E090E03EF0EF0DBCFE6FF5E
:101E5000DFEF0DF0E76E050EE7CFDBFF12008BDF43
:101E600002EF0FF0DBCFE6FF86DF0BEF0FF0D9506C
:101E7000F90FE96EFF0ED0EF0EF0E96E000EDA20DA
:041E8000EA6E1200F4
:0C1E8400019E08D0019E09AE05D0086C3C
:101E9000091EE86A0922018E09C003F008C002F099
:101EA000136A126A8E0E046E056AAAEF11F00F7E95
:101EB000016AE6EC11F0FEEC11F001B68EEF11F0C4
:101EC00001A20AD001AA03D001BE8EEF11F001A435
:101ED0009AEF11F097EF11F001AA05D001AC9AEF3B
:101EE00011F097EF11F001A00AD001A808D001BEAF
:101EF00004D001A402D0A3EF11F0A7EF11F0126AF1
:101F0000056A0F500A5C116E10E307C013F008C099
:101F100002F009C003F00AC010F00CC007F00DC0B9
:101F200008F00EC009F0013A09D00CC013F00DC042
:101F300002F00EC003F00FC010F0116C019E01BC46
:101F4000018E10C004F001B0D6EF11F01A0E11602E
:101F5000D6EF11F0046A0A6A01A408D0076C081EC3
:101F6000091E0A1EE86A082209220A2201AC08D0CA
:101F7000136C021E031E041EE86A022203220422BE
:101F8000066A115207E00A34093208320732063273
:101F9000112EF9D7075013260850022209500322A8
:101FA0000A50042206C012F0019E04AE0BD0126C3F
:101FB000131E021E031E041EE86A132202220322BD
:101FC0000422018E04A006D0D880033202321332DC
:101FD0001232102A10C004F0AAEF11F0016AE6ECE8
:101FE00011F0FEEC11F001B68EEF11F001A205D058
:101FF00001BA8EEF11F095EF11F001BAA1EF11F0D7
:1020000001A005D001B88EEF11F0A1EF11F001B8D9
:1020100095EF11F0056A7F0E0A24046EE86A052226
:102020000F50045EE86A055A1A0E106E0A6A126AA8
:10203000136A026A036A0C50075E0D50085A0E506C
:10204000095A000E0A5A09E70C5007260D500822BB
:102050000E500922000E0A2201D0128AD8900736AB
:10206000083609360A36D890123613360236033649
:10207000102EE1D7095008100710D8A4128AAAEF31
:1020800011F0016AE6EC11F0FEEC11F001B68EEFF2
:1020900011F001A205D001B88EEF11F095EF11F00B
:1020A00001AA05D001B08EEF11F095EF11F001B04B
:1020B00002D001A802D0A1EF11F0056A0F500A2446
:1020C000046EE86A05227E0E045EE86A055A126A0A
:1020D000136A026A036A0E500902F4CF03F0F3CFC9
:1020E00002F00D500902F3501326F4500222000EA4
:1020F00003220E500802F3501326F4500222000E61
:1021000003220C500902F3501226F4501322000E41
:10211000022203220D500802F3501226F45013221B
:10212000000E022203220E500702F3501226F45032
:102130001322000E022203220C500802F450122631
:10214000000E1322022203220D500702F450122621
:10215000000E132202220322AAEF11F0006A0EAE33
:10216000B7EF10F00D6C0E1EE86A0E22001E09AECD
:10217000BFEF10F0086C091EE86A0922001E19EC76
:1021800014F009BECFEF10F000AE000C086C091E71
:10219000E86A0922046C051EE86A0522000C00BEEC
:1021A000C6EF10F00188FF0C09C013F008C012F050
:1021B00008500D02F4CF07F0F3CF06F009500E02DD
:1021C000F4CF09F0F3CF08F00D02F3500726F450D6
:1021D0000822E86A092212500E02F3500726F45032
:1021E0000822E86A09220EAEFAEF10F01250085EDB
:1021F0001350095A13AE000C0D50085E0E50095AC8
:10220000000C016AE6EC11F001B60BEF11F001A22F
:102210000ED001B405D07F0E096EFF0E086E1FD0E0
:10222000800E096E086A1BD0096A086A18D001B0CE
:10223000FBD78F0E0A60EDD77E0E0A64F5D78E0E9F
:102240000A5C05E0D890093208320A2AF8D701A4BE
:1022500006D0086C091EE86A092209AEE5D712000B
:1022600039EC11F001B6000C01B0000C01B4000C07
:10227000010C016AE6EC11F0FEEC11F001B612005F
:1022800001AE08D001A004D001A802D00180120044
:10229000019012000F500A5C0BE10E50095C08E13E
:1022A0000D50085C05E10C50075C02E10180120052
:1022B000D8A002D0018E10D00A500FC00AF00F6EC5
:1022C00009500EC009F00E6E08500DC008F00D6EDA
:1022D00007500CC007F00C6E0F500A5C10E0FF0FA7
:1022E00009E0019001B403D001AE0184120001AEF7
:1022F000019412000F2AD8900E320D320C320C507D
:10230000075E0D50085A0E50095A09BEEAD7D890F8
:102310000736083609360A2EF8D7C8D77F0E0A6E58
:10232000FF0E096E086E076E12007F0E01BEFF0ED3
:102330000A6E02D07F0E0A6E800E096E086A076A66
:10234000F3D701AE04D0800E0A6E096AF7D70A6A85
:10235000096AF4D70350021013101210F8E005BEFA
:10236000F0D703BE0CD004500510EBE0D890123625
:102370001336023603360406D8A00506F2D70550F8
:10238000D4E10428D2E012AE11D07F0E121402E183
:1023900013A00CD0132AE86A0222032207E3D88094
:1023A000033202321332042A0428BFE00450C9E089
:1023B00013C007F002C008F00334096E04300A6E3F
:1023C00009320A9E01BE0A8E94EF11F009360A36D0
:1023D00002E30184017E06E101800A6A096A086A53
:1023E000076A12000A2803E0D88009321200D89048
:1023F000093202E101821200018612000E360F3608
:1024000002E3018C017E06E101880F6A0E6A0D6A03
:102410000C6A12000F2803E0D8800E321200D89008
:082420000E32EAE1018A12000C
:082428001E0EF66E000EF76EA9
:10243000000EF86E01010900F550E26F0900F55039
:10244000E36F03E1E26701D03DD00900F550DD6F95
:102450000900F550DE6F0900F550DF6F0900090033
:10246000F550E96E0900F550EA6E0900090009000F
:10247000F550E06F0900F550E16F09000900F6CF53
:10248000E4F1F7CFE5F1F8CFE6F1DDC1F6FFDEC10B
:10249000F7FFDFC1F8FF0101E05302E1E15307E07C
:1024A0000900F550EE6EE007F8E2E107F9D7E4C164
:1024B000F6FFE5C1F7FFE6C1F8FF0101E207000EF4
:0624C000E35BBFD7120030
:0A24C600D9CFE6FFDACFE6FFE1CF41
:1024D000D9FFE2CFDAFFE652E652E652E652D95091
:1024E000FB0F146EFF0EDA20156E14C0DEFFDD6EDA
:1024F000DECFE6FFDDCFE6FFFB0EDBCFE6FFFC0E17
:10250000DBCFE6FFFD0EDBCFE6FFE7C1E6FFE8C16C
:10251000E6FF47EC09F0146E070EE15C02E2E16AA7
:10252000E552E16E1450020EF3CFDBFF030EF4CF41
:10253000DBFF020EDBCF14F0030EDBCF15F014C06F
:10254000F3FF15C0F4FF040EE15C02E2E16AE5521C
:0E255000E16EE552E5CFDAFFE7CFD9FF1200CA
:02255E00D9CFD3
:10256000E6FFDACFE6FFE1CFD9FFE2CFDAFFAC6AD0
:10257000AB6AFD0EDBB0AC88DBA202D0AC8CAB8CBE
:10258000DBB4AC8EDBA602D0AB8801D0AB8ADBB863
:10259000AC849E98DBBAAB86DBAC02D09D8A01D0BE
:1025A0009D9A9E9ADBAE02D09D8801D09D98FB0E2D
:1025B000DB50AF6EFB0EFC0EDBCF15F015C014F038
:1025C000156A1450B06EAC8AAB8E949C948EAC504D
:1025D000100B04E0AC50800B01E1948CE552E5CF88
:0825E000DAFFE7CFD9FF12007A
:0825E800D9CFE6FFDACFE6FFD0
:1025F000E1CFD9FFE2CFDAFFFB0EDBCF14F0FC0E08
:10260000DBCF15F00001800E15141AE1FB0EDBCFB5
:10261000E9FFFC0EDBCFEAFFEECFF3FFEDCFF4FFD7
:10262000EE2A000EEF22F3CFE9FFF4CFEAFFFD0E12
:10263000DBCFEFFFEF50156AF36E15C0F4FF10D03B
:10264000FB0EDB50FE0806E1FD0EDBCFE6FF5FEC84
:1026500014F005D0FD0EDBCFE6FF03EC00F0E552F1
:0C266000E552E5CFDAFFE7CFD9FF12000A
:04266C0006500B0207
:10267000F3CF02F0F4CF03F00C02F3500326000E68
:10268000F420046E06500D02F3500426000EF420D0
:10269000056E06500E02F350052607500B02F3504C
:1026A0000326F4500422000E052207500C02F350BA
:1026B0000426F450052207500D02F3500526085059
:1026C0000B02F3500426F450052208500C02F3507C
:0C26D000052609500B02F35005261200ED
:0426DC00FE0EE3CF3C
:1026E000E9FFFF0EE3CFEAFFF36AF46AEE5203E07C
:1026F000F34AF42AFBD71200FF0EE3CFF8FFE552AE
:10270000FF0EE3CFF7FFE552FF0EE3CFF6FFE552F2
:10271000E66AE66AE66A0900F55209E0FD0EE32A78
:1027200005E1FE0EE32A02E1FF0EE32AF4D7FD0ED7
:10273000E3CF07F0FE0EE3CF08F0FF0EE3CF09F082
:02274000120085
:0E274200D9CFE6FFDACFE6FFE1CFD9FFE2CF35
:10275000DAFFACA2FED7FC0EDBCFE9FFFD0EDBCF2C
:10276000EAFFEF50E66E02EC14F0E552FC0EDBCF10
:10277000E9FFDB2AFD0EDBCFEAFF01E3DB2AEF50A6
:0E278000E8E1E552E5CFDAFFE7CFD9FF12001E
:02278E00056ADA
:10279000046A036A026A200EE76ED890063607368E
:1027A0000836093602360336043605360B50025C0D
:1027B0000C5003580D5004580E50055809E30B50A7
:1027C000025E0C50035A0D50045A0E50055A062A48
:0627D000E72EE4D7120021
:0A27D600FF0EE350256EEF0E01D058
:1027E000F30EE76EE72EF2EF13F00C0E246EE76A9D
:1027F000E72EF8EF13F0242EF7EF13F0252EF0EF6D
:0428000013F01200BF
:0C280400D9CFE6FFDACFE6FFE1CFD9FF25
:10281000E2CFDAFFACAC04D0AC900101E9B3AC80FC
:10282000FD0EDB50AD6EE552E5CFDAFFE7CFD9FF05
:02283000120094
:0E283200056A046A100EE76ED8900836093663
:10284000043605360D50045C0E50055805E30D5056
:0E285000045E0E50055A082AE72EF0D712003B
:02285E00F36A1B
:10286000F46AFF0EE124E96EFF0EE220EA6EED66E7
:1028700007D02F0EEF6404D03A0EEF6001D0F32A98
:02288000120044
:0E288200000EF36E00EE00F0080E01D81200FA
:10289000EA6002D0EE6AFCD7F350E9601200EE6AFB
:0228A000FCD763
:0E28A20013EE00F023EE00F0F86A019C14EC37
:0E28B00012F007EC00F08EEC06F0FBD71200E1
:0228BE00FF0E0B
:1028C000E350ACBA04D0AF6AAB8EAC8A949CACA295
:0A28D000FED7AD6EF36EF46A12003D
:0628DA002564256425645D
:1028E00025642564256425642564256425642564A0
:0628F0002564202D2000EC
:0A28F60030313233343536373839CB
:07290000616263646566007B
:0929070028000900280004005A10
:10291000003200090064003200090064004600092A
:10292000006400000012000000CDCCCC3E0000008E
:102930000032000000000000000200000000000063
:102940000000000000000000000000000000000087
:102950000000000000000000000000000000000077
:102960000001000100000000000000000000000065
:102970000000000000000000000000000000000057
:102980000000000000000000000000000000000047
:102990000000000000000000000000000000000037
:1029A0000000000000000000000000000000009A8D
:1029B00099993D00000000000000000AD7A33C5296
:1029C000491D3A0AD7A33C000000000000000000A7
:1029D0000000000000000000000000000020410096
:0429E000000D0A00DC
:020000040030CA
:0100000004FB
:010001000EF0
:0100020000FD
:010003001EDE
:0100050001F9
:010006008079
:010008000FE8
:01000900C036
:01000A000FE6
:01000B00E014
:01000C000FE4
:01000D0040B2
:00000001FF
